:020000040800F2
:10000000902B0020F58A0008498A00084B8A0008D6
:100010004D8A00084F8A0008518A0008000000003D
:10002000000000000000000000000000538A0008EB
:10003000558A000800000000578A0008598A000805
:100040001F8B0008238B0008278B00082B8B0008D0
:100050002F8B0008338B00085D8A0008378B00085F
:100060003B8B00083F8B0008438B0008478B000840
:100070004B8B00084F8B0008538B0008578B0008F0
:100080005B8B00085F8B0008638B0008678B0008A0
:100090006B8B00086F8B0008738B0008778B000850
:1000A0007B8B00087F8B0008838B0008878B000800
:1000B0008B8B00088F8B0008938B0008978B0008B0
:1000C0009B8B00089F8B0008A38B0008A78B000860
:1000D000AB8B0008AF8B0008B38B0008B78B000810
:1000E000BB8B0008BF8B0008C38B0008C78B0008C0
:1000F000CB8B0008CF8B0008D38B0008D78B000870
:10010000DB8B0008DF8B0008E38B0008E78B00081F
:10011000EB8B0008EF8B0008638A0008F38B000864
:10012000F78B0008FB8B0008FF8B0008038C00088E
:10013000078C00080B8C00080F8C0008138C00083B
:10014000178C00081B8C00081F8C0008238C0008EB
:10015000278C00082B8C00082F8C0008338C00089B
:10016000378C00083B8C00083F8C0008438C00084B
:10017000478C00084B8C00084F8C000800000000E2
:10018000538C0008578C00085B8C00085F8C0008BB
:10019000638C0008678C00086B8C00086F8C00086B
:1001A000738C0008778C00087B8C0008000000002E
:1001B000000000000000000000000000000000003F
:1001C000000000000000000000000000000000002F
:1001D000000000000000000000000000000000001F
:1001E000000000000000000000000000000000000F
:1001F00000000000000000000000038000038000F9
:10020000038000038000038000038000038000035C
:1002100080000380000100000100000000000000D9
:1002200000038000038000000000000000000000C8
:1002300000000000000000000000000000000000BE
:1002400000000000000E70000E70000E7000042010
:100250000004200004200004200000000000000032
:10026000000000000000000000000000000000008E
:10027000000000000000000000000000000000007E
:1002800000000000000000000000066000066000A2
:100290000660000660000660003FF8003FF80006B8
:1002A00060000CC0003FF8003FF8000CC0000CC01C
:1002B000000CC0000CC0000CC000000000000000DA
:1002C000000000000000000000000000000000012D
:1002D000800001800007B0000FF000187000187057
:1002E000001C00000F800007E00000F00018300044
:1002F0001C30001C70001FE0001BC00001800001CA
:10030000800001800001800000000000000000006B
:10031000000000000000000000000780000FC00087
:100320001CE0001860001860001CE0000FF80007D7
:10033000E0001FF000073800061800061800073814
:100340000003F00001E000000000000000000000D9
:10035000000000000000000000000000000000009D
:10036000000000000000000003F00007F0000C6037
:10037000000C00000C00000600000700000F9C00AD
:100380001DFC0018F0001870000FFC0007DC0000D6
:10039000000000000000000000000000000000005D
:1003A00000000000000000000000000000038000CA
:1003B0000380000380000100000100000100000133
:1003C000000000000000000000000000000000002D
:1003D000000000000000000000000000000000001D
:1003E000000000000000000000000000000000000D
:1003F000000000180000380000700000F00000E06D
:100400000000E00001C00001C00001C00001C00008
:1004100001C00001C00000E00000E000007000002A
:10042000700000380000180000000000000000000C
:10043000000000000000000000001800001C000088
:100440000E00000E000007000007000003800003FC
:100450008000038000038000038000038000070009
:10046000000700000F00000E00001C000018000034
:10047000000000000000000000000000000000007C
:1004800000000180000180000180001DB8001FF8FD
:100490000007E00003C00003C00006600006600023
:1004A000000000000000000000000000000000004C
:1004B000000000000000000000000000000000003C
:1004C000000000000000000000000000000000002C
:1004D0000180000180000180000180000180003F58
:1004E000FC003FFC000180000180000180000180D1
:1004F000000180000000000000000000000000007B
:1005000000000000000000000000000000000000EB
:1005100000000000000000000000000000000000DB
:1005200000000000000000000000000000000000CB
:1005300000000000000000E00000C00001C0000159
:1005400080000180000300000300000000000000A4
:10055000000000000000000000000000000000009B
:100560000000000000000000000000000000001F6C
:10057000F8001FF80000000000000000000000006C
:10058000000000000000000000000000000000006B
:10059000000000000000000000000000000000005B
:1005A000000000000000000000000000000000004B
:1005B000000000000000000000000000000000003B
:1005C00000000000000003C00003C00003C00000E2
:1005D000000000000000000000000000000000001B
:1005E0000000000000180000180000380000300073
:1005F00000700000600000600000C00000C000014A
:1006000080000180000300000300000600000600D7
:10061000000E00000C00001C000018000018000074
:1006200000000000000000000000000000000000CA
:10063000000003C00007E0000C30000C3000181868
:1006400000181800181800181800181800181800BA
:100650001818000C30000C300007E00003C0000048
:10066000000000000000000000000000000000008A
:100670000000000000000000000000800007800073
:100680001F80001D800001800001800001800001AA
:100690008000018000018000018000018000018055
:1006A000001FF8001FF8000000000000000000001C
:1006B000000000000000000000000000000000003A
:1006C000000007C0001FF00038300030180030185C
:1006D0000000180000300000600001C0000380002E
:1006E0000600000C00001800003FF8003FF8000072
:1006F00000000000000000000000000000000000FA
:100700000000000000000000000003C0000FE00037
:100710000C700000300000300000600003C00003D7
:10072000E0000070000018000018000018001838E1
:10073000001FF0000FC000000000000000000000DB
:1007400000000000000000000000000000000000A9
:10075000000000E00001E00001E00003600006602E
:10076000000660000C60000C600018600030600043
:100770003FF8003FF80000600003F80003F80000B5
:100780000000000000000000000000000000000069
:10079000000000000000000000001FF0001FF0003B
:1007A0001800001800001800001BC0001FF0001CFB
:1007B0003000001800001800001800001800303049
:1007C000003FF0000FC0000000000000000000002B
:1007D0000000000000000000000000000000000019
:1007E000000000F80003F8000700000E00000C00F5
:1007F000001800001BC0001FF0001C30001818007B
:100800001818001818000C38000FF00003E0000062
:1008100000000000000000000000000000000000D8
:10082000000000000000000000001FF8001FF8009A
:100830001818001838000030000030000070000068
:10084000600000600000E00000C00000C00001C0C7
:100850000001800001800000000000000000000096
:100860000000000000000000000000000000000088
:10087000000007E0000FF0001C38001818001818DE
:10088000000C300007E00007E0000C3000181800F2
:100890001818001818001C38000FF00007E00000BE
:1008A0000000000000000000000000000000000048
:1008B0000000000000000000000007C0000FF00072
:1008C0001C30001818001818001818000C38000FF9
:1008D000F80003D80000180000300000700000E0AD
:1008E000001FC0001F00000000000000000000000A
:1008F00000000000000000000000000000000000F8
:10090000000000000000000000000000000003C024
:100910000003C00003C00000000000000000000051
:1009200000000000000003C00003C00003C000007E
:1009300000000000000000000000000000000000B7
:1009400000000000000000000000000000000000A7
:1009500000000000000000F00000F00000F00000C7
:10096000000000000000000000000000E00001C0E6
:100970000001800001800003000002000000000070
:100980000000000000000000000000000000000067
:100990000000000000000000001C00003C0000F00F
:1009A0000003C0000F00003C0000F000003C00000D
:1009B0000F000003C00000F000003C00001C00001D
:1009C0000000000000000000000000000000000027
:1009D0000000000000000000000000000000000017
:1009E0000000000000000000007FFC007FFC000011
:1009F00000000000007FFC007FFC00000000000001
:100A000000000000000000000000000000000000E6
:100A100000000000000000000000000000000000D6
:100A200000000000000000007000007800001E00C0
:100A30000007800001E000007800001E0000780040
:100A400001E0000780001E00007800007000000038
:100A50000000000000000000000000000000000096
:100A60000000000000000000000000000007C000BF
:100A70000FE00018700018300018300000700000FF
:100A8000E00003C00003800003000000000000003D
:100A90000007000007000000000000000000000048
:100AA0000000000000000000000000000000000046
:100AB000000003E00007F0000E38000C1800187862
:100AC0000018F80019D80019980019980019980012
:100AD00018F8001878001800000C00000E18000725
:100AE000F80003E00000000000000000000000002B
:100AF000000000000000000000000000001F800057
:100B00001FC00001C0000360000360000630000643
:100B100030000C30000FF8001FF800180C00300CEB
:100B200000FC7F00FC7F00000000000000000000CF
:100B300000000000000000000000000000000000B5
:100B400000000000007FE0007FF000183800181857
:100B5000001818001838001FF0001FF800181C00BB
:100B6000180C00180C00180C007FF8007FF0000033
:100B70000000000000000000000000000000000075
:100B80000000000000000000000000000003EC0076
:100B90000FFC001C1C00180C00300C003000003052
:100BA0000000300000300000300000180C001C1C59
:100BB000000FF80003F0000000000000000000003B
:100BC0000000000000000000000000000000000025
:100BD00000000000007FC0007FF0001838001818E7
:100BE00000180C00180C00180C00180C00180C0051
:100BF000180C001818001838007FF0007FE0000083
:100C000000000000000000000000000000000000E4
:100C1000000000000000000000000000007FF8005D
:100C20007FF8001818001818001998001980001F84
:100C300080001F80001980001998001818001818EB
:100C4000007FF8007FF800000000000000000000B6
:100C50000000000000000000000000000000000094
:100C600000000000003FFC003FFC000C0C000C0CDE
:100C7000000CCC000CC0000FC0000FC0000CC00066
:100C80000CC0000C00000C00003FC0003FC0000082
:100C90000000000000000000000000000000000054
:100CA0000000000000000000000000000003EC0055
:100CB0000FFC001C1C00180C00300C003000003031
:100CC000000030FE0030FE00300C00380C001C1C10
:100CD000000FFC0003F00000000000000000000016
:100CE0000000000000000000000000000000000004
:100CF00000000000007E7E007E7E0018180018189C
:100D0000001818001818001FF8001FF80018180025
:100D10001818001818001818007E7E007E7E00004B
:100D200000000000000000000000000000000000C3
:100D3000000000000000000000000000001FF8009C
:100D40001FF8000180000180000180000180000187
:100D5000800001800001800001800001800001808E
:100D6000001FF8001FF80000000000000000000055
:100D70000000000000000000000000000000000073
:100D8000000000000007FE0007FE000030000030F9
:100D90000000300000300000300030300030300003
:100DA0003030003030003060003FE0000F80000045
:100DB0000000000000000000000000000000000033
:100DC000000000000000000000000000007F3E0066
:100DD0007F3E0018300018600018C0001980001B0A
:100DE00080001FC0001CE000187000183000183888
:100DF000007F1F007F1F00000000000000000000B7
:100E000000000000000000000000000000000000E2
:100E100000000000007F80007F80000C00000C00BC
:100E2000000C00000C00000C00000C00000C0C007A
:100E30000C0C000C0C000C0C007FFC007FFC000074
:100E400000000000000000000000000000000000A2
:100E500000000000000000000000000000F00F0093
:100E6000F81F00381C003C3C003C3C00366C00364F
:100E70006C0033CC0033CC00318C00300C00300CD3
:100E800000FE7F00FE7F0000000000000000000068
:100E90000000000000000000000000000000000052
:100EA000000000000078FE0078FE001C18001E18EC
:100EB000001F18001B18001B980019D80018D80034
:100EC00018F8001878001838007F18007F18000004
:100ED0000000000000000000000000000000000012
:100EE0000000000000000000000000000003C0003F
:100EF0000FF0001C3800181800381C00300C0030AF
:100F00000C00300C00300C00381C001818001C3885
:100F1000000FF00003C0000000000000000000000F
:100F200000000000000000000000000000000000C1
:100F300000000000003FF0003FF8000C1C000C0C0B
:100F4000000C0C000C0C000C18000FF8000FE00057
:100F50000C00000C00000C00003FC0003FC000006F
:100F60000000000000000000000000000000000081
:100F70000000000000000000000000000003C000AE
:100F80000FF0001C3800181800381C00300C00301E
:100F90000C00300C00300C00381C001818001C38F5
:100FA000000FF00007C00007CC000FFC000C380059
:100FB0000000000000000000000000000000000031
:100FC00000000000007FE0007FF0001838001818D3
:100FD000001818001838001FF0001FC00018E000AB
:100FE0001870001830001838007F1E007F0E0000B7
:100FF00000000000000000000000000000000000F1
:101000000000000000000000000000000007D80001
:101010000FF8001C38001818001818001E00000FE8
:10102000C00003F0000078001818001818001C38E1
:10103000001FF0001BE000000000000000000000A6
:1010400000000000000000000000000000000000A0
:1010500000000000003FFC003FFC00318C00318CA0
:1010600000318C00318C0001800001800001800083
:101070000180000180000180000FF0000FF00000EF
:101080000000000000000000000000000000000060
:10109000000000000000000000000000007E7E0054
:1010A0007E7E00181800181800181800181800186C
:1010B00018001818001818001818001818000C301C
:1010C000000FF00003C0000000000000000000005E
:1010D0000000000000000000000000000000000010
:1010E00000000000007F7F007F7F00180C000C18BC
:1010F000000C18000C1800063000063000036000D9
:1011000003600003600001C00001C0000080000017
:1011100000000000000000000000000000000000CF
:1011200000000000000000000000000000FE3F8002
:10113000FE3F8030060030060030860019CC0019D2
:10114000CC001B6C001B6C001E7C000E38000E389F
:10115000000C18000C180000000000000000000047
:10116000000000000000000000000000000000007F
:1011700000000000007E7E007E7E001818000C300B
:101180000006600003C00001800001800003C00071
:101190000660000C30001818007E7E007E7E000085
:1011A000000000000000000000000000000000003F
:1011B000000000000000000000000000007C7E0035
:1011C0007C7E001818000C300006600006600003EA
:1011D000C0000180000180000180000180000180CA
:1011E000000FF0000FF00000000000000000000001
:1011F00000000000000000000000000000000000EF
:1012000000000000001FF8001FF800181800183038
:101210000018600018C000018000030000061800DC
:101220000C18001818003018003FF8003FF80000B4
:1012300000000000000000000000000000000000AE
:101240000000000000000000000001F00001F000BC
:101250000180000180000180000180000180000108
:101260008000018000018000018000018000018079
:101270000001800001800001800001F00001F00009
:10128000000000000000000000000000180000182E
:1012900000001C00000C00000E000006000006000C
:1012A0000003000003000001800001800000C00076
:1012B00000C000006000006000007000003000000E
:1012C00038000018000018000000000000000000B6
:1012D000000000000000000000000F80000F8000F0
:1012E0000180000180000180000180000180000178
:1012F00080000180000180000180000180000180E9
:10130000000180000180000180000F80000F80003C
:1013100000000000000000000000000000000000CD
:10132000800001C00003E0000770000630000C18C8
:1013300000180C0010040000000000000000000075
:10134000000000000000000000000000000000009D
:10135000000000000000000000000000000000008D
:10136000000000000000000000000000000000007D
:10137000000000000000000000000000000000006D
:10138000000000000000000000000000000000005D
:10139000000000000000000000000000000000004D
:1013A000000000000000FFFF00FFFF00000000033E
:1013B000000003800000E00000600000000000006A
:1013C000000000000000000000000000000000001D
:1013D000000000000000000000000000000000000D
:1013E00000000000000000000000000000000000FD
:1013F00000000000000000000000000000000000ED
:101400000000000000000FC0001FE00000300000DE
:10141000300007F0001FF00038300030300030702E
:10142000001FFC000FBC00000000000000000000D6
:1014300000000000000000000000000000000000AC
:1014400000007800007800001800001800001BE081
:10145000001FF8001C1800180C00180C00180C00D5
:10146000180C00180C001C18007FF8007BE000002E
:10147000000000000000000000000000000000006C
:10148000000000000000000000000000000000005C
:1014900000000000000003EC000FFC001C1C0038E2
:1014A0000C00300C00300000300000380C001C1C18
:1014B000000FF80003F00000000000000000000032
:1014C000000000000000000000000000000000001C
:1014D000000000780000780000180000180007D80D
:1014E000001FF800183800301800301800301800BD
:1014F0003018003018001838001FFE0007DE00000A
:1015000000000000000000000000000000000000DB
:1015100000000000000000000000000000000000CB
:1015200000000000000007E0001FF800181800305D
:101530000C003FFC003FFC00300000300000180CA5
:10154000001FFC0007F00000000000000000000089
:10155000000000000000000000000000000000008B
:10156000000001FC0003FC000600000600003FF83C
:10157000003FF8000600000600000600000600001C
:101580000600000600000600003FF0003FF00000EB
:10159000000000000000000000000000000000004B
:1015A000000000000000000000000000000000003B
:1015B00000000000000007DE001FFE0018380030A9
:1015C0001800301800301800301800301800183893
:1015D000001FF80007D800001800001800003800AD
:1015E0000FF0000FC000000000000000000000002D
:1015F00000007800007800001800001800001BE0D0
:10160000001FF0001C3800181800181800181800E7
:101610001818001818001818007E7E007E7E000042
:1016200000000000000000000000000000000000BA
:1016300000000000000000000000018000018000A8
:101640000000000000001F80001F800001800001DA
:101650008000018000018000018000018000018085
:10166000003FFC003FFC0000000000000000000004
:10167000000000000000000000000000000000006A
:10168000000000C00000C0000000000000001FF0CB
:10169000001FF0000030000030000030000030007B
:1016A000003000003000003000003000003000004A
:1016B00030000030000070001FE0001F80000000BC
:1016C000000000000000000000003C00003C0000A2
:1016D0000C00000C00000CF8000CF8000CC0000D11
:1016E00080000F80000F00000F80000DC0000CE094
:1016F000003C7C003C7C000000000000000000007A
:1017000000000000000000000000000000000000D9
:1017100000001F80001F8000018000018000018008
:101720000001800001800001800001800001800034
:101730000180000180000180003FFC003FFC0000B0
:101740000000000000000000000000000000000099
:101750000000000000000000000000000000000089
:10176000000000000000F77800FFFC0039CC0031D9
:101770008C00318C00318C00318C00318C00318C2C
:1017800000FDEF00FDEF0000000000000000000081
:101790000000000000000000000000000000000049
:1017A00000000000000000000000000000007BE0DE
:1017B000007FF0001C3800181800181800181800D6
:1017C0001818001818001818007E7E007E7E000091
:1017D0000000000000000000000000000000000009
:1017E00000000000000000000000000000000000F9
:1017F00000000000000003C0000FF0001C3800389B
:101800001C00300C00300C00300C00381C001C3860
:10181000000FF00003C00000000000000000000006
:1018200000000000000000000000000000000000B8
:1018300000000000000000000000000000007BE04D
:10184000007FF8001C1800180C00180C00180C0081
:10185000180C00180C001C18001FF8001BE00018E2
:1018600000001800001800007F00007F000000004A
:101870000000000000000000000000000000000068
:1018800000000000000007DE001FFE0018380030D6
:1018900018003018003018003018003018001838C0
:1018A000001FF80007D800001800001800001800FA
:1018B00000FE0000FE00000000000000000000002C
:1018C00000000000000000000000000000003E7862
:1018D000003EFC0007CC00070000060000060000E8
:1018E0000600000600000600003FF0003FF0000088
:1018F00000000000000000000000000000000000E8
:1019000000000000000000000000000000000000D7
:1019100000000000000007F8000FF8001818001879
:1019200018001F80000FF00000F800181800183889
:10193000001FF0001FE00000000000000000000099
:101940000000000000000000000000000000000097
:1019500000000C00000C00000C00000C00003FF028
:10196000003FF0000C00000C00000C00000C000018
:101970000C00000C00000C1C0007FC0003F0000031
:101980000000000000000000000000000000000057
:101990000000000000000000000000000000000047
:1019A000000000000000787800787800181800180F
:1019B00018001818001818001818001818001838FF
:1019C000000FFE0007DE0000000000000000000025
:1019D0000000000000000000000000000000000007
:1019E00000000000000000000000000000007C3E3D
:1019F000007C3E001818001818000C30000C300055
:101A000006600006600007E00003C00003C000009D
:101A100000000000000000000000000000000000C6
:101A200000000000000000000000000000000000B6
:101A3000000000000000783C00783C0031180033C2
:101A400098003398001AB0001EF0001EF0001C60D1
:101A5000000C60000C6000000000000000000000AE
:101A60000000000000000000000000000000000076
:101A700000000000000000000000000000003E7CAC
:101A8000003E7C000C300006600003C000018000B6
:101A900003C0000660000C30003E7C003E7C00006D
:101AA0000000000000000000000000000000000036
:101AB0000000000000000000000000000000000026
:101AC0000000000000007E1F007E1F00180C000CAC
:101AD00018000C180006300006300003600003E018
:101AE0000001C00000C00001800001800003000070
:101AF0003FC0003FC00000000000000000000000E8
:101B000000000000000000000000000000001FF8BE
:101B1000001FF80018300018600000C000018000AD
:101B20000300000618000C18001FF8001FF8000042
:101B300000000000000000000000000000000000A5
:101B40000000000000000000000000E00001E000D4
:101B500001800001800001800001800001800001FF
:101B600080000380000700000380000180000180E6
:101B70000001800001800001800001E00000E00021
:101B80000000000000000000000000000000000055
:101B900000000180000180000180000180000180C0
:101BA00000018000018000018000018000018000B0
:101BB000018000018000018000018000018000019F
:101BC0008000018000018000000000000000000093
:101BD0000000000000000000000007000007800077
:101BE000018000018000018000018000018000016F
:101BF000800001C00000E00001C000018000018001
:101C000000018000018000018000078000070000C3
:101C100000000000000000000000000000000000C4
:101C200000000000000000000000000000000000B4
:101C3000000000000E00001F18003BB80031F0004B
:101C400000E00000000000000000000000000000B4
:101C50000000000000000000000000000000000084
:101C6000000000002DE9F04F0FF2A41CA1B0DCE948
:101C70000089CDE900892A9DDFF8DC9B04910024CE
:101C80008DF843500D944FF0FF38824616461F469C
:101C90000FE0B3462C461BF8011B0498D0470028E0
:101CA000049000F0A2800D98401C641E0D90F2D1AB
:101CB00076193078252808D1002100220791089252
:101CC00009910A920B910C920DE06A46414630460A
:101CD00000F0DAFF050001D10D98A1E0D9D501256A
:101CE000E6E741F0010116F8010F2028F9D023287A
:101CF0000CD02B2804D02D2805D0302809D076E030
:101D000041F00201EFE741F00401ECE741F0080186
:101D1000E9E741F01001E6E70F9209E00F98484526
:101D200005DA00EB800402EB4402303A0F92761C95
:101D30003278A2F130000A28F0D330782E2818BF6C
:101D4000CDF8388022D116F8010F2A2807D138683B
:101D50003860761C50F8042B38600E9216E02D285F
:101D60000CBF761C002000220E920AE040B90E9AA9
:101D70004A4505DA02EB820403EB4403303B0E9341
:101D8000761C3378A3F130020A2AEFD3ADF8401065
:101D900021A0317800F082FF08B116F8010B8DF810
:101DA00042009DF84200682804D1307868280AD1A2
:101DB000622105E06C2804BF30786C2803D17121C2
:101DC0008DF84210761C12A806903A4616F8013B90
:101DD00002A9504600F064F838B912AA02A9504688
:101DE00000F0C8F900287FF564AF404618E02A28C3
:101DF00092D13A683A6052F8040B3A6000280F908A
:101E000003D540420F9041F00401761C95E7000095
:101E10000000000000000000686A6C747A4C00004A
:101E200021B0BDE8F08F622820D0682811D06A2840
:101E300003D06C2827D0712825D10868C01D20F058
:101E400007000860D0E900230830086019461046F2
:101E50007047002A0A680A60106803D0121D0A60E1
:101E600000B217E0121D0A6080B217E0002A0A686B
:101E70000A60106803D0121D0A6040B20AE0121D09
:101E80000A60C0B20AE0002A0A680A60106803D03B
:101E9000121D0A60C1177047121D0A6000217047A9
:101EA0007CB50D4611461C462E69B4F1250200F0A2
:101EB0004F811C3A00F08480121F022A40F2808079
:101EC0000E3A00F00981521F59D0093A78D0921E7B
:101ED00016D0521E35D0521E022A71D9121F30D090
:101EE000521F00F09880521E49D0521E00F0E2802E
:101EF000D21E00F0FF80921E41D0D21E3FD02DE1B5
:101F000095F83A406C2C09D06869421C6A610A68ED
:101F10000A6052F8043B0A60335429E10A680A60F7
:101F200052F8043B0A600093002201924FF0FF3305
:101F30002B636A46294600F098F9002840F1188181
:101F400003E195F83A000122FFF76DFFC5E90001B2
:101F5000002904D56869411C69612D220DE0288F94
:101F6000810704D56869411C69612B2205E0C0071F
:101F700021D56869411C6961202232541BE095F823
:101F80003A000022FFF74FFFC5E9000195F838003D
:101F9000010710D5D5E90023002B08BF002A0AD07D
:101FA00044F02000782806D1686930213154401C63
:101FB000421C6A613454214668693044E86087E015
:101FC0000868C01D20F007000860D0E90023083031
:101FD0000860C5E90023D5E90001C80F04D068698D
:101FE000411C69612D220DE0288F810704D56869A5
:101FF000411C69612B2205E0C00704D56869411CBA
:1020000069612022325468693044E86021462846DC
:1020100000F036FAACE005F13A02507820B14FF00A
:10202000FF340FF6043074E01078622808D0682876
:1020300024D06A2812D06C282ED071280ED02BE024
:102040000A680A6052F8040B0A6020B94FF0FF34A6
:102050000FF6EC205DE0E96A017089E00A680A6029
:1020600052F8040B0A6020B94FF0FF340FF6D0206D
:102070004FE0EA6AD317C0E9002379E00A680A60F2
:1020800052F8040B0A6020B94FF0FF340FF6B0206D
:102090003FE0E96A01806BE00A680A6052F8040BCD
:1020A0000A6020B94FF0FF340FF6942031E0E96A5E
:1020B00001605DE00A680A6052F8040B0A600021C2
:1020C00020F0000221F0FF33C5E90023EE60782103
:1020D000284600F02DF94BE06C2285F83A200B6879
:1020E0000B6053F8042B0B6052BB4FF0FF340FF61C
:1020F00084200EE095F83A206C2AF0D00868086039
:1021000050F8044B0860EC603CB94FF0FF340FF618
:10211000482000F0EBFD201A76BD2E6B002E04D572
:10212000204600F003FE044608E032460021204627
:1021300000F006FE002814BF041B3446AC6117E013
:10214000294600F092F8002812D54FF0FF3076BDF6
:102150006869411C69612522325409E06969481C9B
:10216000686125227254210002D0431C6B613454F3
:10217000002076BD2DE9F0410E4605469046726B73
:102180007069316AB46A121AB069521A716A121A05
:10219000F069521A121A96F83800141B41070DD430
:1021A000002C0BDD2746B0682021A8470028B0602E
:1021B00057D0F06A401C7F1EF062F4D1736942462A
:1021C0003146284600F098FC00284AD1376A002F93
:1021D0000ADDB0683021A8470028B06041D0F06A1D
:1021E000401C7F1EF062F4D1B369F2683146284684
:1021F00000F082FCA8BB776A002F09DDB0683021AF
:10220000A847B06068B3F06A401C7F1EF062F5D149
:10221000F068B169F36942183146284600F06CFC59
:10222000F8B9B76A002F09DDB0683021A847B0605F
:10223000B8B1F06A401C7F1EF062F5D196F8380004
:1022400041070BD5002C09DDB0682021A847B060FC
:1022500038B1F06A401C641EF062F5D10020BDE880
:10226000F0814FF0FF30BDE8F0812DE9F8470D46D1
:10227000A3B02F6B002F0646904648BF6FF0004773
:102280000FF60C1400F088FDD4E90023696B4018A8
:10229000CDE90123812828BF4FF0FF3042D200242E
:1022A000002F33DDD8F8001001AA684600F0EEFCDC
:1022B0008146B9F1000F38D4D8F8000010B9B9F14F
:1022C000010932D44F4521DB6869484481280AD38B
:1022D0000021696303AA29463046FFF74BFF04003B
:1022E00014D40020686103ABD5F814A04A466946AF
:1022F00003EB0A0000F064FDCA44C5F814A058F8C6
:10230000040B002818BFA7EB0907C9D14CB903AAD1
:1023100029463046FFF72EFF044614B900206861B5
:102320006863204624B0BDE8F0874FF0FF34F8E73B
:102330002DE9FC4307466F293E6908BF082405D0F4
:1023400041F02000782814BF0A2410243C25D7E946
:102350000023642918BF69299046994605D1002BAE
:1023600003D5D8F1000869EB4909B9F1000F08BF9E
:10237000B8F1000F1FD1386BE8B9082C4CD197F891
:102380003800010748D530203B2586F83B0043E064
:1023900000280ED597F8380000F01400102808D156
:1023A0007B6B7969386A5B1A1B1A9A1A002AC8BFB4
:1023B0003A62BDE8F3838DF8001040464946224654
:1023C000E31700F009FD3032D0B26D1E3A280195B6
:1023D00004DB9DF80000A0F151018A1872554046B7
:1023E00049462246E31700F0F7FC80465FEA010900
:1023F00008BFB8F1000F03D0F86871198842DCD328
:10240000082C09D197F83800010705D5705D3028F0
:1024100002D06D1E30207055C5F13C02BA617119B1
:10242000F960386B8242B3DA821A3A624FF6EF7083
:10243000398F01403987BDE8F3832DE9D043064643
:102440000F4614464FF00008DFF8109412E0E00742
:1024500007D542464B463046394600F045FD064614
:102460000F464046494642464B4600F03DFD64104B
:1024700080468946002CEAD130463946BDE8D083F3
:102480002DE9F84F05468A464AF020048EB0D5E97A
:102490000089612C02AE09D0286B002848BF0620B5
:1024A00003D408BF672C01D101202863D5E90001BE
:1024B0004A005215521C0DD10B030BD0AAF1610139
:1024C00003201A29A86102D20FF2CC6110E00FF2AA
:1024D000CC610DE04A005215521C0ED10B030CD1F9
:1024E000AAF1610103201A29A86116D30FF2B46181
:1024F000E868032200F064FCC0E1CDE90C01DDE9ED
:102500000C2323F00043B3F5801F0DD20027002BCE
:1025100008BF002A019703D111E00FF28461E7E7B9
:1025200001AA00F0B3FD0AE0CD48CE4900EB1350FC
:10253000DDE90C2301900B40CB4910461943C5E956
:102540000001612C0DD1E86830210170821CBAF1C4
:10255000610FEA600CBF7821582141706869801CC6
:102560006861D5E90001CDE90C01DDE90C2333F008
:10257000004104BF0028002300F04881612C40F096
:10258000A080286B494600284CBF4FF0210B00F17A
:10259000010B404600220023DDE90C8900F0AEFD6E
:1025A00001990BF1010738BF89F00049091F002F7D
:1025B00001918DF808200DF1090040F33581A949FA
:1025C00000910646404649460022002300F0AEFD39
:1025D00080F029814800400D00F11C0211D0002A32
:1025E0000FDD40F2FF739A4205DBA04909F000407D
:1025F0000143002011E0009B194041EA025140468E
:102600000BE028F0000039F0004108BF00280FBFA0
:1026100049461C22494600F0A1FD8046894600F04B
:102620003BFEFF1F002F044609DD00F053FE02466B
:102630000B464046494600F05FFE80468946F01D45
:10264000072104E004F00F0200F8012D2411002CF2
:1026500001DD491EF6D5491E5CBF002200F8012DA0
:10266000F9D5DCE00020194602AA0A4400E05B1E0E
:1026700012F80149491E8442F9D00F2804D10DF106
:102680000900425C521C4254002904D50198001DE7
:1026900002AE5B1C0190581E0CD43118AAF13A040A
:1026A0000A783032D7B23A2FA8BFA218401E01F8DC
:1026B0000129F5D5286B002840F1A780591E296310
:1026C000A3E001996A4A47F29750414391FBF2F225
:1026D000019229F00046D2F1070204DD404631465E
:1026E000FFF7ABFE0AE0524200206249FFF7A5FE69
:1026F00002460B464046314600F070FE8046662C8E
:10270000286B06BF019F0A3706273F18142FC8BF42
:10271000142730208DF8080089460DF1090000E0EB
:102720003046002F34DD06464046494600F07AFF29
:1027300001460A4606F1080304200A26B2FBF6F613
:1027400006EB860EA2EB4E02303203F8012C0A2271
:10275000B6FBF2F202EB820EA6EB4E063036401EBE
:1027600003F8026DE9D1083F002F03F10806D7DD19
:10277000084600F06BFF02460B464046494600F013
:10278000BBFD00223C4B00F0AFFB80468946CBE707
:102790000DF10901401A0DF1090604E00199491EE5
:1027A000401E0191761C31783029F7D0662C02D179
:1027B0000199491C03E0652C0CBF012100212B6B02
:1027C000CB189842B8BF431E002B1ED4834204DAB4
:1027D000F05C3528A8BF392000DA30201946721E77
:1027E00002EB010800E05B1E18F80199491E8145C3
:1027F000F9D0392802D1705C401C7054002904D5EE
:102800000198401C16465B1C0190019800B2009094
:102810001BB232465146284600F034F82EE0C61D61
:10282000002F3FF7CFAE30460DF10901401A0346A5
:102830005845C8BF5B46002B0DF109063FF53AAF7E
:102840008342BFF60FAF0DF10900C15C07297FF786
:1028500009AF0F2007E70000CBCCCC0C00002440D0
:1028600002FCFFFFFFFF0F800000E03F0000F07F51
:10287000A08601000000F03F84D797410FB0BDE86B
:10288000F08F00002DE9F84783B006468A461746C8
:10289000984600F0FDF9B8F1000F406A356B90F8EA
:1028A000009002DC4FF00108BFA74AF02000BDF9FC
:1028B0003040662808BF641C15D0672840F084802B
:1028C00014F1040FC0F28680AC4280F2838096F847
:1028D0003800641C010702D4A845B8BF454620B2A1
:1028E0002D1A48BF00250FFA84FAF068B169BAF1D1
:1028F000000F25DC4A1C30234354002D03DC96F8DE
:102900003800010703D5F06800F80290521C15EB5F
:102910000A0FB8BF6C4220B2441941424445B8BFC7
:10292000A046B26171620FFA88F5F561F068B3698B
:102930002A463946184400F043FA641BB462C4E0E6
:1029400022B29045084417DA4246394600F038FA78
:10295000B0694044B061AAEB0801002D716203DC4C
:1029600096F838100A0705D5F16801F80090F0696B
:10297000401CF061B562A8E0394600F021FAB06968
:10298000002D5044A8EB040803DC96F838100A0721
:1029900003D5F16801F80090401CB0610FFA88F08F
:1029A0008542F368B069B8BFA8460FFA88F207EB12
:1029B0000A01184400F004FAB1690FFA88F00144E2
:1029C000B161281A706280E0BAF1610F14D14FF042
:1029D000700A16E0A84504DA96F838100A0758BFBE
:1029E00045466D1E48BF0025BAF1670F14BF4FF072
:1029F000450A4FF0650A04E0BAF1410F08BF4FF0F5
:102A0000500AB169F368481CB061002D17F8012B1A
:102A10005A5403DC96F838100A071BD5F168431C9A
:102A2000B36101F80090002D14DDA8F101080FFA40
:102A300088F039468542F768B8BFA8460FFA88F291
:102A4000F81800F0BDF9B0690FFA88F108446D1A62
:102A5000B0617562F068B1690844002C80F800A08C
:102A600003D42B224270811C03E02D21417064426B
:102A7000811C00206A460AE023460A2493FBF4F4F2
:102A800004EB8405A3EB450302F8013B401C24B290
:102A9000002CF1DC012806DC4AF02002652A04BF84
:102AA000302201F8012B48B9302001F8010B07E072
:102AB000401E1DF80030303301F8013B0028F7DCE0
:102AC000F268B0691044091AF16196F8380000F014
:102AD000140010280DD17269B169706A8A18F16901
:102AE0008218B06A8A188218706B8242BCBF821A40
:102AF000326204B0BDE8F087F8B505460E461746C9
:102B00001C46002074B117F8011BB068A847B060DC
:102B100030B1F06A401CF0620020641EF3D1F2BDB7
:102B20004FF0FF30F2BD00007072696E74665F7323
:102B30003A20256E20646973616C6C6F7765640060
:102B40007072696E74663A2062616420256E20613D
:102B50007267756D656E74007072696E74665F730E
:102B60003A2062616420257320617267756D656E1D
:102B7000740000007072696E74665F733A2062615F
:102B80006420256C7320617267756D656E7400003A
:102B900000000000000000006E616E004E414E001B
:102BA000696E6600494E46003000F0B40246106877
:102BB00095681318506803EB5004C0071DD54D44A9
:102BC0001BE013F8017B05F8017B491EF9D1A0B188
:102BD000B60813F8011B06F00306032E08BF13F80E
:102BE000016B01EB06214942801C294405D011F8F4
:102BF000016B05F8016B401EF9D1A3420ED013F80A
:102C0000016B16F0030104BF13F8011BC91C300946
:102C10000F28DAD113F8010B0F30D6E7F0BC02F120
:102C20000C0070471B48704770B45368D418042BCD
:102C300009DA41B1057804F8015B10F8016B16B1AF
:102C40005B1C491EF3E7536070BC704738B51446EF
:102C50001D4661B1FFF7E8FF61686A6B2046904747
:102C60006FF00102811A02D0491E01D001E003E099
:102C700005E00021616032BD6FF0010032BD4FF010
:102C8000FF3032BDDA6B1047024BDFE7014BF9E74B
:102C900001487047C003002088030020C9B20278B1
:102CA0008A421AB11CBF10F8012FF9E718BF0020A3
:102CB000704730B4002513E050F8042BD30744BF0D
:102CC000A9F101039A18091F042942F8045BFAD2FA
:102CD00013468C0744BF15809B1CC90748BF1D7055
:102CE00050F8041B0029E7D130BC704780B500B90B
:102CF00006A005490B681BB122220021984701E07C
:102D000000F0B1FC222002BD84270020636F6E73A7
:102D1000747261696E742068616E646C65723A20C9
:102D2000626164206D6573736167650000F1010382
:102D300010F8011B11B110F8011BFBE7C01A704716
:102D4000C9B2830706D0521E22D310F8013B994224
:102D5000F7D11FE0083A13D302F1040241EA01213E
:102D600041EA014150F8043B121F21BF4B40A3F13F
:102D7000013C2CEA030C1CF0803FF3D0C9B2001FC9
:102D8000083210F8013B521E28BF91EA030FF8D811
:102D900018BF0120401E704780B5FFF743FF006C4D
:102DA00002BDB1F5807F02D34FF0FF307047017054
:102DB000012070470078401E8041C043C00F70471B
:102DC0004AB1000011F8013B521E00F8013B1CBF44
:102DD00011F8013BF8E77047D3BBD9B1B2F5803F9A
:102DE0005BD2022A1ED98C46B1FBF2F102FB11C361
:102DF0001B0443EA1043B3FBF2FC02FB1C3380B21A
:102E000040EA0343B3FBF2F002FB103240EA0C400D
:102E100000237047022A05D98446B0FBF2F002FB7A
:102E200010C270474AB105D100F0010249085FEABB
:102E30003000704700220023704700F017BC0B00E1
:102E40000200002100207047F7D3002200237047C2
:102E5000904271EB030CF2D370B5B1FA81F4B3FA7E
:102E600083F52C1BA340C4F1200532FA05F6334349
:102E7000A2405FF00046E64002E05B085FEA3202F3
:102E8000841A71EB030524BF204629467641F4D30A
:102E900002000B003000002170BD70B5B1FA81F462
:102EA000B2FA82F5C4F120046419B4F12006DAD331
:102EB000B2405FF00044F440002502E052085FEAAF
:102EC0003303C61A71EB020E24BF304671466441CB
:102ED0006D41F3D302000B002000290070BD026891
:102EE000531C036011707047B0B581EA030C0CF0FD
:102EF000004C40F2FF7515EA11541DBF15EA135737
:102F0000AC42AF4239E0E41923EA455343F480135D
:102F1000C90241F0004141EA505EC7021100A7FB1F
:102F2000020200284FF00000EEFB01204FF00001EC
:102F3000E3FB072118BF42F001024018002149417C
:102F4000E3FB0E01A4F580640F0302D2520040415E
:102F5000494154F101046CDD470872F1004250F11F
:102F6000000051EB0451A1F580115CBF41EA0C0156
:102F7000B0BD4CEA05510020B0BD05EA1357AC4284
:102F800014BFAF4241E050EA410E1CBF52EA430E6B
:102F900002E061460020B0BD24423C441BD15FEA00
:102FA000070EF6D0090302BF01460020AEF1140E51
:102FB000B1FA81F7AEEB070401FA07FE0C37C7F14F
:102FC000200100FA07F7C8404EEA000E23EA4553F5
:102FD00043F48013A2E733F00043B3FA83F704BF4E
:102FE000B2FA82FE77440B3FE41BB7F1200E2FBFED
:102FF00002FA0EF3BB40C7F1200E22FA0EFE38BFD4
:1030000043EA0E03BA40641C82E750EA410E14BF43
:1030100052EA430E6FF000014FF4001717EB430F15
:103020008ABF194617EB410FB5E74CEA055100205E
:10303000B0BDD4F10104B4F120070FDAC4F12007C8
:10304000520828BF42F0010210FA07F501FA07F70B
:10305000E1BF2A43E0403843E1400FE0352C98DCE3
:10306000C7F1200452EA400220FA07F218BF42F0EA
:10307000010231FA07F0A1400A43002172F1004237
:1030800050F1000051EB0C01B0BD000010B514462A
:1030900000F002F8226010BDC1F30A5343B14A00A8
:1030A00012F5001F28D2A3F2FE32A1EB02517047A5
:1030B00050EA410C20D001F0004C31EA0C01B1FA89
:1030C00081F204BFB0FA80F3D2180B3AB2F12003B8
:1030D0002CBF00FA03F1914041EA0C013EBFC2F15E
:1030E000200C20FA0CF319439040524240F2FD3379
:1030F000D21A01EB03517047002270474FF4001CB5
:103100001CEB410F94BF1CEB430F09E041EA030C99
:1031100050EA4C0C52EA0C0C03D2994208BF904280
:10312000704714BF8B428242704700004FF4001C6E
:103130001CEB410F94BF1CEB430F09E041EA030C69
:1031400050EA4C0C52EA0C0C03D28B4208BF82426C
:10315000704714BF9942904270470000124254D405
:1031600040F2FF7C1CEA11530FD0634531D09B180D
:1031700063453CBF01EB0251704701F0004141EA59
:103180000C510020AFF30080704750EA410320D07B
:1031900001F0004C91EA0C011CD0B1FA81F30B3B19
:1031A0009A420DD9D21A994051EA0C01C3F1200C70
:1031B00020FA0CFC61449840531C40F2FF7CD7E796
:1031C000914041EA0C01C2F1200C20FA0CF31943A2
:1031D00090407047B0FA80F31533202BE0D3202ABB
:1031E000EED3203A203B9A4209D9D21A00FA03F1D1
:1031F00041EA0C010020531C40F2FF7CB8E700FAC2
:1032000002F141EA0C0100207047524240F2FF7C7B
:103210001CEA11530DD06345DBD0B2EB030C3CBF6D
:10322000A1EB025170470CF1010221EA035141F474
:10323000801150EA410CCCD001F0004C352A27DC3B
:1032400030B481EA0C01B2F1200309DAC2F12003A3
:10325000044601FA03F5D0402843D1409C400CE0DD
:10326000C3F12002450020FA03F418BF44F0010422
:1032700021FA03F091400C43002174F1004550F114
:10328000000051EB0C01244230BC7FF47BAF70474F
:103290006146002076E70000C1F30A5340F2FE3297
:1032A0009B1A14DDD3F120034FEAE17208DDC90255
:1032B00041EA505141F00040D840801850407047DA
:1032C00003F2E13010B1D24382F000407047002099
:1032D00070470000C11768B14840401AB0FA80F248
:1032E0009040D21CC907C2F5846241EA025202EB47
:1032F000D02140057047000070B44FF0004591EABE
:10330000030F40F1B5816B40841A71EB030603D2C1
:10331000001BB141121973414FF4001C1CEB410F0B
:1033200034BF7CEB430442E00C0DA4EB1356352E66
:103330004FDC45EAC323DB0A45EAC121C912B6F1D5
:1033400020050DDD63FA05F6EB4086EA030512421F
:1033500018BF45F00105C01851F100010CD213E06F
:1033600062FA06F5F2405540F3415A40B340F3404B
:103370005A408018594107D349085FEA30005FEA94
:10338000350528BF45F0010501F58011420875F1AA
:10339000004250F1000041EB04514E0016F5001FB1
:1033A00070BC38BF70470020090D090570471CEB41
:1033B000410F10D252EA43060BD0BCEB410F05D8A7
:1033C0000C0DAB43661E342EB6DD02E0AB43801815
:1033D000594170BC704770BC70470000F0B540F2B6
:1033E000FF7581EA030C0CF0004C15EA11541DBF67
:1033F00015EA1357AC42AF42E5E0BC41C1F31301FB
:10340000C3F31303801A994143F4801304D2641E5A
:103410004000494180185941C90241EA5051B1FB6D
:10342000F3F603FB1611A2FB0675D7EBC020A941EA
:1034300002D2761E80185941C90241EA5051B1FBAF
:10344000F3FE03FB1E11A2FB0E75D7EBC020A941B2
:1034500003D2AEF1010E80185941890241EA905120
:10346000760546EA8E2EB1FBF3F603FB1611A2FB9E
:103470000675D7EB8020A94102D2761E80185941EB
:10348000C90241EA50514EEA060EB1FBF3F603FBC6
:103490001611A2FB0675D7EBC020A94102D2761EF9
:1034A00080185941C90241EA5051B1FBF3F703FBBF
:1034B0001711A2FB0735D3EBC020A94167F1000724
:1034C0000CBF004247F0010766F3D5274FEA1E31D3
:1034D000B80814F5806412DDBD0775F1004250EBA9
:1034E0000E5051EB045111F5801F5CBF41EA0C01F5
:1034F000F0BD4CF07F6141F0E0410020F0BDBD0720
:103500006D0840EA0E5041F48011D4F10104B4F189
:1035100020060ADAC4F120060200E04001FA06F3B0
:10352000E1401843B24015430EE0342C13DCC6F1E1
:10353000200445EA40056D0820FA06F2154321FAF9
:1035400006F0A1400D43002175F1004250F100004A
:1035500051EB0C01F0BD00205FEA0C01F0BDCFB9CA
:1035600092185B41B3FA83F704BFB2FA82F6BF192F
:103570000B3FB7F120062FBF02FA06F3BB40C7F19D
:10358000200622FA06F638BF3343BA401CB1E419CC
:10359000641E33E77F4231F00041B1FA81F404BF89
:1035A000B0FA80F6A4190B3CB4F120062FBF00FA44
:1035B00006F1A140C4F1200620FA06F638BF3143D7
:1035C000A0403C1B1AE7AC421ABF05EA1357AF42B2
:1035D00012E050EA41061CBF52EA4306BFE750EA38
:1035E0004107304661461CBF41EA0551F0BD52EA31
:1035F000430C08BFC143F0BD00204FF4001616EB8A
:10360000410F98BF16EB430F08BF16EB410F24BFC5
:10361000C14305E016EB430F0CBF61464CEA055170
:10362000F0BD0000400D491840EA81200CD2490D40
:10363000A1F58061491C40F0004005DBD1F11F017C
:1036400054BFC840C017704700207047014648B1BA
:10365000B0FA80F18840C91CC1F58461090501EB0D
:10366000D02140057047012000F0B8B87047000035
:10367000841A71EB030604D26E40001BB14112198B
:1036800073414FF4001C1CEB410F34BF7CEB43062D
:1036900083E00C0DA4EB1356362E00F37C80012E34
:1036A00045EAC32341DC43EA525312BFD2029202DD
:1036B0005B08240545EAC12141EA5051D2EBC02004
:1036C000994125D407D1B0FA80F610FA06F162D0FC
:1036D0000020203608E0B1FA81F6B140C6F12002A0
:1036E00020FA02F21143B0404FEAF474B4EB4654AE
:1036F00034F001064FEA74040AD8D6F50016760DA8
:1037000004F00044F04061FA06F25040F1404840B5
:10371000C00A40EA415021F0004128BF5FEA50054D
:1037200050F1000044EBD12135E0DB0A45EAC1212C
:10373000C90AB6F120050EDD42EA0242120CC5F1BB
:10374000200603FA06F6EB4042EA06056D42984170
:1037500061F100010DE062FA06F5F240554063FAAE
:1037600006FC82EA0C02F3405A406D42904161EB44
:10377000030111F4801F05D1641E620502D06D00A3
:103780004041494121F48011430875F1004350F153
:10379000000041EB045170BC70471CEB410F15D287
:1037A00023F0004352EA43060BD04FEA4C0CBCEB2B
:1037B000410F04D80C0D661E342EB7DDEBE7801ADE
:1037C000994150EA410608BF0021E4E708BF1CEB1D
:1037D000430F28BF6FF00001DDE7000080B5AFF3B5
:1037E0000080024A11001820ABBEFBE72600020051
:1037F00000000000000000000000000000000000C9
:1038000000000000000000000000000000000000B8
:1038100000000C000C000C000C000C000C000C0054
:103820000C0000000C000000000000000000000080
:10383000000000001DC01DC0088008800880000036
:103840000000000000000000000000000000000078
:1038500000000D800D800D800D803FC01B003FC01B
:103860001B001B001B001B000000000000000000EC
:1038700004001F803180318038001E000F0003805B
:10388000318031803F00040004000000000000008F
:10389000000018002400240018C007801E0031809A
:1038A0000240024001800000000000000000000013
:1038B000000000000F001800180018000C001D8008
:1038C000370033001D8000000000000000000000F1
:1038D00000000000070007000200020002000000D4
:1038E00000000000000000000000000000000000D8
:1038F00000000300030006000E000C000C000C008A
:103900000C000E0006000300030000000000000091
:103910000000180018000C00060006000600060053
:10392000060006000C001C0018000000000000004B
:103930000000060006003FC03FC00F001F80198036
:103940000000000000000000000000000000000077
:103950000000000000000400040004003F80040098
:10396000040004000000000000000000000000004F
:103970000000000000000000000000000000000047
:103980000000060004000C00080008000000000011
:103990000000000000000000000000003F80000068
:1039A0000000000000000000000000000000000017
:1039B0000000000000000000000000000000000007
:1039C00000000C000C0000000000000000000000DF
:1039D00000C000C0018001800300030006000C004D
:1039E0000C0018001800300030000000000000003B
:1039F00000000E001B003180318031803180318029
:103A000031801B000E0000000000000000000000DC
:103A1000000006003E000600060006000600060044
:103A2000060006003FC0000000000000000000008B
:103A300000000F00198031803180030006000C0067
:103A4000180030003F80000000000000000000006F
:103A500000003F006180018003001F00038001809F
:103A6000018061803F0000000000000000000000B5
:103A70000000070007000F000B001B0013003300BD
:103A80003F8003000F8000000000000000000000E5
:103A900000001F801800180018001F00118001800E
:103AA000018021801F0000000000000000000000D5
:103AB000000007801C00180030003700398031807A
:103AC000318019800F00000000000000000000009D
:103AD00000007F0043000300060006000600060009
:103AE0000C000C000C0000000000000000000000B2
:103AF00000001F003180318031801F003180318013
:103B0000318031801F000000000000000000000034
:103B100000001E0033003180318033801D80018021
:103B2000030007003C00000000000000000000004F
:103B300000000000000000000C000C00000000006D
:103B400000000C000C00000000000000000000005D
:103B5000000000000000000003000300000000005F
:103B6000000006000400080008000000000000003B
:103B70000000000000C003000400180060001800EE
:103B80000400030000C0000000000000000000006E
:103B9000000000000000000000007FC000007FC0A7
:103BA0000000000000000000000000000000000015
:103BB00000000000600018000400030000C00300C3
:103BC0000400180060000000000000000000000079
:103BD000000000001F0031803180018007000C00D0
:103BE0000C0000000C0000000000000000000000BD
:103BF00000000E00110021002100270029002900EB
:103C00002700200011000E0000000000000000004E
:103C1000000000003F000F000900198019801F807C
:103C200030C030C079E0000000000000000000005B
:103C3000000000007F003180318031803F00318002
:103C4000318031807F000000000000000000000093
:103C5000000000001F4030C0604060006000600055
:103C6000604030801F0000000000000000000000E5
:103C7000000000007F00318030C030C030C030C054
:103C800030C031807F000000000000000000000014
:103C9000000000007F803080308032003E00320023
:103CA000308030807F8000000000000000000000B5
:103CB000000000007FC03040304032003E00320043
:103CC000300030007C000000000000000000000018
:103CD000000000001E80318060806000600067C0CE
:103CE000618031801F000000000000000000000023
:103CF000000000007BC03180318031803F80318006
:103D0000318031807BC00000000000000000000016
:103D1000000000003FC00600060006000600060086
:103D2000060006003FC00000000000000000000088
:103D3000000000001FC00300030003000300630035
:103D4000630063003E00000000000000000000006F
:103D5000000000007BC03180330036003C003E0094
:103D60003300318079C00000000000000000000036
:103D7000000000007E00180018001800180018400D
:103D8000184018407FC00000000000000000000044
:103D900000000000E0E060C071C07BC06AC06EC07F
:103DA00064C060C0FBE000000000000000000000F4
:103DB0000000000073C0318039803D80358037803D
:103DC0003380318079800000000000000000000096
:103DD000000000001F00318060C060C060C060C093
:103DE00060C031801F0000000000000000000000E3
:103DF000000000007F0031803180318031803F0041
:103E0000300030007E0000000000000000000000D4
:103E1000000000001F00318060C060C060C060C052
:103E200060C031801F000CC01F8000000000000037
:103E3000000000007F003180318031803E0033007F
:103E4000318031807CE000000000000000000000B4
:103E5000000000001F803180318038001F00038087
:103E6000318031803F0000000000000000000000B1
:103E7000000000007F804C804C804C800C000C00C7
:103E80000C000C003F0000000000000000000000DB
:103E9000000000007BC03180318031803180318072
:103EA000318031801F000000000000000000000091
:103EB000000000007BC0318031801B001B001B0014
:103EC0000A000E000E0000000000000000000000CC
:103ED00000000000FBE060C064C06EC06EC02A80BD
:103EE0003B803B80318000000000000000000000AB
:103EF000000000007BC031801B000E000E000E0091
:103F00001B0031807BC000000000000000000000AA
:103F10000000000079E030C019800F0006000600A4
:103F2000060006001F8000000000000000000000E6
:103F3000000000003F8021802300060004000C00E8
:103F4000188030803F80000000000000000000006A
:103F500000000780060006000600060006000600B6
:103F600006000600060006000780000000000000B2
:103F700030003000180018000C000C000600030090
:103F800003000180018000C000C0000000000000AC
:103F900000001E00060006000600060006000600DF
:103FA00006000600060006001E00000000000000DB
:103FB00004000A000A001100208020800000000098
:103FC00000000000000000000000000000000000F1
:103FD00000000000000000000000000000000000E1
:103FE0000000000000000000000000000000FFE0F2
:103FF00008000400020000000000000000000000B3
:1040000000000000000000000000000000000000B0
:1040100000000000000000001F00018001801F80E0
:10402000318033801DC0000000000000000000004F
:1040300000007000300030003700398030C030C0E0
:1040400030C0398077000000000000000000000050
:1040500000000000000000001E80318060806000D1
:10406000608031801F0000000000000000000000A0
:1040700000000380018001801D80338061806180A9
:10408000618033801DC000000000000000000000BF
:1040900000000000000000001F00318060C07FC0F1
:1040A000600030C01F800000000000000000000021
:1040B000000007E00C000C003F800C000C000C001E
:1040C0000C000C003F800000000000000000000019
:1040D00000000000000000001DC03380618061808E
:1040E000618033801D80018001801F00000000007E
:1040F000000070003000300037003980318031809E
:10410000318031807BC00000000000000000000012
:1041100000000600060000001E0006000600060063
:10412000060006003FC00000000000000000000084
:1041300000000600060000003F000300030003002B
:10414000030003000300030003003E000000000022
:104150000000700030003000378036003C003C002A
:104160003600330077C000000000000000000000AF
:1041700000001E00060006000600060006000600FD
:10418000060006003FC00000000000000000000024
:1041900000000000000000007F8036C036C036C03E
:1041A00036C036C076E000000000000000000000CD
:1041B000000000000000000077003980318031806D
:1041C000318031807BC00000000000000000000052
:1041D00000000000000000001F00318060C060C0CF
:1041E00060C031801F0000000000000000000000DF
:1041F00000000000000000007700398030C030C0AF
:1042000030C039803700300030007C0000000000F2
:1042100000000000000000001DC03380618061804C
:10422000618033801D800180018007C00000000094
:1042300000000000000000007B801CC01800180077
:10424000180018007F0000000000000000000000BF
:1042500000000000000000001F8031803C001F00B3
:10426000038031803F0000000000000000000000DB
:1042700000001800180018007F001800180018002F
:10428000180018800F00000000000000000000006F
:104290000000000000000000738031803180318018
:1042A000318033801DC000000000000000000000CD
:1042B00000000000000000007BC0318031801B0046
:1042C0001B000E000E0000000000000000000000B7
:1042D0000000000000000000F1E060C064C06EC09B
:1042E0003B803B80318000000000000000000000A7
:1042F00000000000000000007BC01B000E000E004C
:104300000E001B007BC00000000000000000000049
:10431000000000000000000079E030C01980198022
:104320000B000F00060006000C003E00000000001D
:1043300000000000000000003F80218003000E000C
:10434000180030803F8000000000000000000000E6
:10435000000006000C000C000C000C000C00180003
:104360000C000C000C000C00060000000000000017
:104370000000060006000600060006000600060013
:10438000060006000600060006000000000000000F
:1043900000000C00060006000600060006000300F0
:1043A00006000600060006000C00000000000000E9
:1043B000000000000000000000001800248003003E
:1043C00000000000000000000000000000000000ED
:1043D000DFF8FC08DFF8FC184268506A4A888B68EE
:1043E0000880B1F900004880821A8A8003FA82F2BC
:1043F0008A60C868121A88680A61C860DFF8D8182D
:104400004860704780B5DFF8CC08002141808160AA
:10441000C16001610020DFF8C0184FF4805248608D
:104420008A60C861886108600021DFF8B00800F088
:10443000A9FCDFF89C0842680021516201BD38B533
:10444000DFF89448DFF894582DED048BE269A168F9
:104450006068081AA1694118821A00EE101A08EE65
:10446000102A606184ED060A84ED088AE06100EE9E
:10447000900AB8EEC09AF8EEE00AD5ED108A95EDF4
:10448000110A60EEA88A29EE000AC5ED138A10EE23
:10449000100A00F0DDFCDFF84828DFF84838FEF7A6
:1044A00023FD00F0F9FCB8EEC88A95ED120A09EE7A
:1044B000100A28EE000A85ED149A10EE100A00F09A
:1044C000C7FCDFF81C28DFF81C38FEF787FF00F078
:1044D000E3FC00EE100A85ED150A78EE890A30EE4D
:1044E000800A84ED100A642000F076FCA4F84400F1
:1044F0006FF01502162100F09DFCA4F8440001465F
:10450000BDEC048B2846BDE8344000F03BBCDFF82E
:10451000C807DFF8D4270168436842F8213002EB6E
:104520008101B0F94420C1F8B0244369C1F8603971
:104530008269C1F8102E01F59651006A0860704733
:10454000F0B5DFF8A8470FF60C01B3B04FF47A735B
:104550000E22204600F00FFD00250FF60806DFF8BA
:10456000887707EB85002A46D0F8B01400913146D1
:1045700057F8253001A800F0FDFD01A8FEF7D6FB95
:1045800082B24FF47A7301A9204600F0F4FC6D1C4E
:10459000B5F5967FE5DB33B0F0BD10B5DFF83847F1
:1045A00060684FF47A7390FBF3F200F031F8642006
:1045B00000F0C0FE61684FF47A7291FBF2F24FF4A2
:1045C0007A7000FB1211642300F020F86E2000F0D6
:1045D000B1FE6168642291FBF2F2642000FB1211CB
:1045E0000A2300F013F8782000F0A4FE62680A2184
:1045F00092FBF1F10A2000FB1122BDE8104030329D
:10460000D2B24FF49B71822000F094BE91FBF3F282
:104610003032D2B24FF49B71704710B500F0CAFD32
:104620004FF05041002000F013FE4FF050410120A8
:1046300000F00EFE012000F049FE4FF07F4000F038
:1046400051FE4FF07F4000F05DFE4FF0FF3000F074
:1046500041FEDFF89C4600F0F1FD206000F0F3FD24
:10466000606000F0C8F94FF0FF2000F033FEBDE8B5
:1046700010404FF49B73AC220A21AC2000F0B1BE75
:1046800010B5029C401AE41A6043511A90FBF1F0F5
:10469000181810BD2DE9F0438BB001F06BF800F055
:1046A000B1F900F071FADFF84406DFF84816DFF8D8
:1046B0002C46DFF8445601604FF4E13200230C2110
:1046C00042608360C360036141618361C36105F53A
:1046D000927600F015FC07A8102101F065F86846F5
:1046E0001C2101F061F8DFF81406206053216320DB
:1046F0000022E0606160A2602261A261204601F0B8
:1047000057F84FF48050079007A9204601F037FA78
:10471000204601F084F8602100910A2201920021D4
:104720000291002204926946204601F0B0F9204629
:1047300001F0C3FD0FF244605321D0E90023CDE91D
:104740000023DFF8BC053060002240F2E730F06063
:104750007160B260B261304601F02AF80021009128
:1047600001913046694601F08DFEDFF898056860DA
:1047700000210220E860A96029610020E86202218E
:104780006863A8632963281D01F0C2FE0121281D6A
:1047900001F07EFF68461C2101F006F805F19C0738
:1047A000DFF864053860012108207960F860102185
:1047B000402039617861002280211020BA60B961FF
:1047C000FA613A627A62BA620090019002900390B4
:1047D0000490059006906946384601F0EFFFDFF837
:1047E0002C05DFF82C15DFF82C85DFF8EC947863C6
:1047F000B9630020F86300214FF480403964786485
:10480000B964F9643965796505F1D007384602F075
:1048100023F80021384602F0C7F80021384602F09C
:10482000DBF8DFF8F40468644FF48271A9640020B7
:10483000E864002168652965A96529666966A96635
:10484000E9664FF40070E8650A21296705F1440024
:1048500002F0E8F800F034F902A8242100F0A4FFE7
:10486000DFF86C740FF20C500021D0E90023DFF860
:10487000AC047860B96000204FF6FF71F8603961D0
:104880007861CDE9002300210120F96102900391B4
:104890000490059106910791089009910A91381D9D
:1048A00002A900F0E5FF002100910191381D694641
:1048B00001F0E8FDDFF86804306405F5B27002F03D
:1048C000E1FB00220021062002F006FC062002F097
:1048D00020FC00220021362002F0FEFB362002F0F0
:1048E00018FCFFF79AFEDFF83C0400F003FDFFF729
:1048F00089FD0421381D01F005F8304600F065FF00
:104900000021204600F098FF03E0FFF798FD00200B
:104910003870D22100910A23D9F8040041F288327C
:104920000021FFF7ADFEB064B7F90200012826D1DF
:1049300001220421404602F094FDFFF701FEFFF73B
:1049400061FD00220421404602F08BFD4FF07F40C4
:1049500000F0D8FC4FF0FF3000F0BCFC00F04BF84A
:104960004FF0FF2000F0B6FC4FF49B73AC220A21FD
:10497000AC2000F036FD0120287000217980FFF77F
:104980000CFE38780128C4D1FFF722FD28780128D1
:1049900004D0BCD30328B8D01DD3B8E7D9F8001091
:1049A000B1F5967F11DAFFF74AFDFFF7B0FDD9F8B0
:1049B0000010491CC9F800100A31B06C6FF0FF02FA
:1049C00089B280B200F091FDA1E70021C9F8001082
:1049D000032028709BE7362002F0A6FB002120462A
:1049E00000F0D0F9FFF7ACFD0020C9F80000362038
:1049F00002F08FFB8BE74FF49673C8220A210A203E
:104A000000F04BBD10B59EB0C74C12A82146302215
:104A1000FEF7D6F901A8142100F0C6FE06A804F19D
:104A200030013022FEF7CCF9002000904FF48033A3
:104A3000BE48016841F0805101600021006800F02B
:104A4000805000900098BA480091026842F44042B9
:104A500002600122006800F44040009012A8009912
:104A6000129202214FF480021891199208214FF4FA
:104A7000A8721A911B920221042213931C911D9279
:104A800002F020FD02210291002203920F204FF438
:104A9000A051019004914FF480520592052101A884
:104AA00002F0A2FE08214FF4D87206910A92022168
:104AB00000220C910F9206A802F06CFF1EB010BDF0
:104AC00038B59AB09B4C0DA821463422FEF778F9F0
:104AD000684604F134013422FEF772F9964C974887
:104AE00020600021072060616160E16021610E208B
:104AF0000321E061A1614FF4A7700521606221628A
:104B00004FF4AA70F521E062A16204F134000022A2
:104B1000F721A260216302808270204603F054F8DE
:104B200000200D900E90109012900521159119A85B
:104B30000021002217918DF8641041700F9211929C
:104B400013924FF4806516921892827014950DA9F5
:104B5000204603F0ACF80CA8002105220091019139
:104B600002910391049105910691089209910A918D
:104B70000B91ADF8301081700795012269462046EF
:104B800003F095F81BB030BD38B586B068461421E7
:104B900000F00AFE00246A485E4D05940168694CE5
:104BA00041F010010160026802F01002059200223B
:104BB00005990592036843F020030360016801F042
:104BC000200100F069F843F080030360016801F000
:104BD000800100F061F843F004030360016801F014
:104BE000040100F059F843F001030360016801F08B
:104BF000010100F051F843F002030360016801F085
:104C0000020100F049F843F040030360016801F03D
:104C100040010591059905920C21036843F00803B2
:104C20000360006800F0080005900598284602F02F
:104C300018FC00224FF4C041204602F012FC0C2167
:104C40000091012201920021029103220392694600
:104C5000284602F09BFA01203B4900900191002276
:104C600002926946394802F091FA0420002100902E
:104C7000019102916946364802F088FA4FF4C0412A
:104C80000091012200210291039101926946204680
:104C900002F07CFA07B030BD0591059905920368D2
:104CA0007047012804BF0A494880704780B50068F2
:104CB0001349884204D14FF40051224802F0D5FB39
:104CC000034801210170BDE80140FFF781BB0000EE
:104CD00084260020082700203C260020A801002070
:104CE000FCA9F1D24D62503F08040020C8260020E4
:104CF00078270020001001403800002000400140CB
:104D00000010004000B00240400100A0005C0040E4
:104D1000A086010000100240005001400004004045
:104D2000003002400C030020948900084038024003
:104D3000007000402C890008D82400200068014041
:104D400030380240001802400000111000000240FC
:104D5000000402405265636F7264205072696E7481
:104D60000D0A00002537642025356420253664208F
:104D70000D0A00000000000000000000000000001C
:104D800000000000F8B50D46642D0446A8BF642558
:104D900004DA15F1640FB8BF6FF06305234E0022EB
:104DA000042100F015F82F0005D4002200F00FF8C0
:104DB0002068456305E0012200F009F820687F4281
:104DC00047632046BDE8F440002100F035BD0821CE
:104DD000304602F046BB000080B503F02DF81448C1
:104DE000B5EE400AFDEEC00AF1EE10FA80ED010AC0
:104DF00010EE901A08DB9FED0B1AB4EE410AF1EEAB
:104E000010FA0AD4642108E0DFED070AB4EE600A64
:104E1000F1EE10FAB8BF6FF063010180B0F9000045
:104E200002BD00000000C842FFFFC7C200100240E0
:104E300070270020002803DD884207DA0846704703
:104E400003D5904202DD10467047002070470000F5
:104E5000C0F3C75181B1FF2906D0C110400721F02E
:104E6000E04101F16051704741020CBF40F4E001A4
:104E70006FF000410020704700F0004100020AD0AE
:104E8000B0FA80FC00FA0CF001F16051A1EB0C517A
:104E900001EBD0214005704701F000428B1AA3F1CD
:104EA0006051B1F5801F0ADBB1F17F6F1FD242EA7A
:104EB000C102C10071F1004142EB507070470B1507
:104EC000C3F10903212B10D2890241EA90518002DB
:104ED0000128494141F0004121FA03F0C3F12003C8
:104EE000994071F1004150417047100070476FF0D8
:104EF000000013EB103F5CBF000E42EAC050704749
:104F000038B5040001D1012032BD00F021F808B904
:104F100000F022F800F012F800F023F8FFE74161FA
:104F200000F001F832BD2068C16841F40051C16051
:104F30000020686020216970A97070472420687083
:104F40002068C16821F40051C160204600F09FB87C
:104F500004F138056878704700212970204601F077
:104F6000D2B92068016921F490410161206841694A
:104F700021F02A0170472DE9F843054605F138076D
:104F80000C4678782028164698463DD1002C14BF50
:104F9000002E012039D03878012835D00121397010
:104FA0000020786021227A7002F062FF8146AE8490
:104FB000EE840020387003E02A6814F8011B516069
:104FC000E88C20B3E88C411EE9844B46A868CDF8F4
:104FD0000080B0F5805F0DD100F023F870B9208813
:104FE0002968C0F3080048602869002814BF641CC1
:104FF000A41CE5E700F015F80028DDD0032004E04C
:1050000020207870002000E00220BDE8F283CDF877
:1050100000804B460022402100F005F80028EFD028
:10502000ECE7002280212846FFE72DE9F041069CAD
:1050300005460E4690461F46286801683140B14239
:105040000CBF01200020404517D114F1010FF3D00F
:1050500024B102F00DFFC01B8442EDD22868C16864
:1050600021F4D07100F00CF805F1380020214170D6
:10507000817000210170032000E00020BDE8F08174
:10508000C160286841694908490041617047D0B54D
:105090000646642732681169F06821F440510143E3
:1050A00011611924D3682D48B168034030690B435E
:1050B00071690343F0690B430343D3605169B069DD
:1050C00021F4407101435161F36925482549B3F545
:1050D000004F1FD18A4218BF824202D102F012FC57
:1050E00001E002F007FC0246A4FB02017268D30F44
:1050F0005200FDF771FE00F037F8FF0032376420F0
:10510000B7FBF0F0420002F4F87202EB011200F07B
:1051100007001DE08A4218BF824202D102F0F2FB72
:1051200001E002F0E7FB0246A4FB02017268930F64
:105130009200FDF751FE00F017F83F01323764206E
:10514000B7FBF0F000F0F00202EB011200F00F00EC
:10515000316880188860D0BD00000000F369FFFF4F
:1051600000140140001001406421B0FBF1F107FB85
:10517000110770470CB430B583B00A4606A90291F6
:10518000044600250194009502AB01A90848784423
:105190001E30FCF767FD019A157000284EBF0446CB
:1051A0000198041B204603B030BC5DF80CFB00BF27
:1051B0002FDDFFFF38B5DFF85843DFF80404DFF8D0
:1051C0000454206009211D20E061616140F20D104E
:1051D00060620321216240F217100122E062A261A5
:1051E00040F24311A16204F13400002240F2471161
:1051F0008270028021630820C02129612860042276
:105200004FF40031AA616962284602F0C3FB002115
:105210006160A160E160216100F006FA204602F0C1
:10522000D3FCDFF8F80328630068804702F026FE0D
:1052300004F1A80000F05EF8002032BDDFF884031E
:10524000016B886A0047DFF87C03016BC86A00477E
:1052500030B58DB00446002000900D46FFF7EEFFFC
:10526000002101900291FFF7EEFF0390FF22002042
:105270000490069005920CA80022ADF830208270B0
:105280004FF4C0610722079108920995FFF7D6FFF6
:105290000A90FFF7D8FF0B902246DFF87452694658
:1052A000284602F004FD0C20DFF87413444308196B
:1052B0004FF0FF32426405F1A8014FF07F42816454
:1052C0000264284602F015FD0DB030BDDFF8501322
:1052D00088657047DFF84823936D0C214B43D11844
:1052E00008647047DFF83823936D0C214B43D118C5
:1052F00048647047DFF82823936D0C214B43D11885
:10530000886470473EB50446FFF79DFF0546FFF7EA
:1053100095FF0246DFF8080301942B46806DDFF805
:10532000F04134250021454300912544E96D00F00A
:105330004BF937BD70B5DFF8E842A56D0C235D432E
:105340006319203A9B6C9C881D68DB88E41DA610BD
:1053500004EB56745A43E41062432A44BDE870409B
:1053600000F0D8B8FEB505460E461446FFF766FFB6
:10537000DFF8AC220146906D0C2343431A4406FB30
:105380000155176C01970022009234272246DFF85E
:105390008041474327440123FC6D04EB850100F065
:1053A00013F9F7BD2DE9FC41DFF874520646884633
:1053B0001446FFF743FF00F08FF808FB0066CF6D3F
:1053C000FFF73CFF00F082F8491E136C0193009137
:1053D00007EB860723460122394600F0F5F8BDE8C1
:1053E000F3812DE9FE4F05460024561B002ECCBF4D
:1053F000A2EB000CA0EB020C0E469F1B002FCCBFB3
:10540000A3EB010EA1EB030E4FF0FF39824227BF41
:10541000012201204A4648468B420FFA8EF326BFEE
:105420000121894649460FFA8CF70FFA8EFE77451F
:105430000FFA8CFB0ADB00220BEBDB779146D84698
:105440007F109A4602920190009121E003EBD377FE
:10545000DA460020002198467F109B46F2E7DFF8ED
:10546000C001836D0C214B43C018B1B2026CA8B2CD
:1054700000F03BF857443FB2474505DB02980099DE
:10548000A7EB080745198E19019845194E44641C6D
:1054900020B28345E3DABDE8F78FF8B504460D4640
:1054A00016461F46FFF75EFF7919324689B220463D
:1054B000FFF758FF3A4629462046FFF773FF341995
:1054C0003A462946A0B2BDE8F8406BE70146A86D10
:1054D0000C2242432A447047AB6D0D4A34214B43A2
:1054E000D118704705B0BDE8F08FF8B504460D46F9
:1054F0001646FFF7A3FE4A4B054A9F6D34214F43E2
:10550000D11900FB0544CA6D02EB84021660F1BD9F
:105510005C0200202DE9F64F414D0F468246A96DF1
:105520000C204143681883B0806CC188029100242C
:10553000B0F8048008F107000190811000EB517071
:10554000C0100090C8EBC0092AE00178467846EA0E
:10555000012606E0467801788078360246EA014660
:1055600006434FF0000BC34518D208EB0902A86DA3
:10557000531E0C21A3EB0B03484326FA03F2291810
:10558000D2070BEB0A0054BF4A6C0A6CB9B280B266
:10559000FFF7ABFF0BF1010BE5E7A3E77F1C641CF2
:1055A00002988442F9D20099049861430844009912
:1055B000012902D00229C8D0CCE70678D1E7000043
:1055C000006801403C2700202DE9FC4180460898F6
:1055D000134FF8600C461546124838604FF44031BE
:1055E00000227960BA601E46384600F091FF90B9FB
:1055F0004146384601F04CF868B9099900962B46A7
:105600002246384600F0AFFF28B93846BDE8FC41D5
:105610000A2100F0C8BFBDE8F381000000000020AF
:10562000E025002000B0024038B586B0002005908B
:1056300000224948494C4169494D41F0806141612E
:10564000416901F08061059105990592036843F471
:1056500000030360016801F40001059105990592BA
:10566000036843F001030360016801F00101059143
:1056700005990592036843F002030360016801F095
:105680000201059105990592036843F00403036044
:10569000016801F00401059105990592036843F042
:1056A00008030360016801F008010591059905925E
:1056B000036843F020030360016801F020010591B5
:1056C0000599059241F65801036843F040030360D1
:1056D0000222006800F0400005900E230598214842
:1056E000009101920021029103920493694601F016
:1056F0004DFD4FF4706100912046694601F046FD72
:105700004FF4986000906946174801F03FFD48202B
:1057100000906946154801F039FD4FF48060009013
:105720006946134801F032FD4FF40C600090694661
:10573000284601F02BFD03210091092204926946BD
:10574000204601F023FD4FF4A05000906946284602
:1057500001F01CFD07B030BD3038024000040240AB
:10576000001802400000024000080240000C024005
:105770000014024080B50B48016841F400710160DB
:10578000026842F480620260016841F48071016045
:10579000032001F094FC002002F0B2FC00F0A6FB14
:1057A000002002BD003C0240002202F0C9BC000003
:1057B00038B5040001D1012032BD00F055F818B908
:1057C00000F04EF800F059FD0FE00068C16841F0AC
:1057D0000101C160816801F00701062903D0016859
:1057E00041F0010101600020704702206870211D16
:1057F000206800F028FA01206870002032BD03D133
:10580000416C41F400414164816801F007010629BF
:1058100003D0016841F001010160002010BD38B5DE
:10582000040001D1012032BD00F01EF818B900F0CB
:1058300017F802F09EFCD8E710B500F007F800F06A
:105840000AF81CBFDFF8B4209042D8E704460122D2
:10585000206800F03CBB2068DFF8A4108842704745
:10586000002129702046704704F13C056878704794
:10587000F8B504000E4601D10120F2BDFFF7F4FF98
:1058800018B9FFF7EDFF00F0A8FC0220687021684E
:10589000DFF87C038A6802408A60211D206800F0DE
:1058A000D2F92268DFF86C1393689069176A014097
:1058B000B0680843B16940EA0120DFF85C13014099
:1058C000F0680843F16940EA0121306941EA0010BB
:1058D000316A40EA013C7068716927F0AA07074302
:1058E0003068034347EA011793602168C1F818C084
:1058F00001212068076269700020F2BD00040140A8
:105900000000014010B5044609B1042901D101226B
:1059100003E000F013F801220421206800F0D7FA18
:10592000FFE7206800F005F8002010BDC1600122EB
:105930003068016841F00101016070472068012270
:10594000002100F0C4BA10B50446206801698A0736
:1059500015D5C1688A0712D56FF0020101610122D5
:105960002277806910F0030F204602D002F002FC7B
:1059700003E002F000FC00F087F8002020772068A8
:1059800001694A0715D5C1684A0712D56FF00401AD
:10599000016102222277806910F4407F204602D004
:1059A00002F0E8FB03E002F0E6FB00F06DF80020F7
:1059B0002077206801690A0715D5C1680A0712D542
:1059C0006FF00801016104222277C06910F0030F13
:1059D000204602D002F0CEFB03E002F0CCFB00F048
:1059E00053F80020207720680169CA0615D5C168E0
:1059F000CA0612D56FF01001016108222277C06932
:105A000010F4407F204602D002F0B4FB03E002F025
:105A1000B2FB00F039F80020207720680169CA073E
:105A200008D5C168CA0705D56FF00101016120469C
:105A3000FFF73CF9206801690A0608D5C1680A0623
:105A400005D56FF080010161204602F095FB2068CA
:105A500001694A0608D5C1684A0605D56FF04001BC
:105A60000161204602F089FB206801698A060AD597
:105A7000C1688A0607D56FF0200101612046BDE8A4
:105A8000104002F07BBB10BD204602F078BB70B521
:105A900000F063F801D1022070BD00F06BF832B164
:105AA000042A17D0082A28D00C2A39D04AE03068B6
:105AB000294600F013F93068816941F0080100F0CF
:105AC00048F821F00401816131688A69286902433C
:105AD0008A6137E03068294600F02CF93068816926
